:10000000F2C000000BC1000009C1000007C10000E0
:1000100005C1000003C1000001C10000FFC00000D5
:10002000FDC00000FBC00000F9C00000CAC2000013
:100030003EC30000F3C00000F1C00000EFC00000AC
:10004000EDC00000EBC00000E9C00000E7C0000008
:10005000E5C00000E3C00000E1C00000DFC0000018
:10006000DDC00000DBC00000D9C00000D7C0000028
:10007000D5C0000000010000CC0112000200003DCC
:10008000013B002200008D013F002100004F0109CB
:100090000022010078011500210100680109000318
:1000A000000039010401030904E9004E02030904B8
:1000B000B30034340343004D002000530074006F3C
:1000C0000072006D00200051007500690063006B34
:1000D00000200046006900720065002000520061A7
:1000E0000070006900640000004E0342006100746B
:1000F00000680072006F006F006D00200045007006
:100100000069007000680061006E0069006500739E
:10011000002C00200043006F007300740061007227
:100120000020004B006500790062006F00610072E2
:1001300000640020002D0000000403090409023BB4
:1001400000020100C032090400000103010100099E
:100150002111010001223F00070583030800010966
:100160000401000103000000092111010001221512
:1001700000070584032000010631FF0974A15375AF
:1001800008150026FF00952009758102C0050109A8
:1001900006A10175019508050719E029E715002555
:1001A00001810295017508810395057501050819FE
:1001B00001290591029501750391039506750815AE
:1001C0000025680507190029688100C01201000296
:1001D00000000020C0167D040001010200010000A3
:1001E00001C10601C12611241FBECFEFD4E0DEBF3E
:1001F000CDBF11E0A0E0B1E0EAE0F0E102C005907F
:100200000D92AE35B107D9F721E0AEE5B1E001C0FE
:100210001D92AC37B207E1F702D0F5C6F1CECF920E
:10022000DF92EF92FF920F931F93CF93DF9380E8BB
:10023000809361001092610085B7806885BF85B7A3
:10024000806885BF51D166D18823E9F3CED0D6E04E
:100250008CE4C82E81E0D82E9FE5E92E91E0F92E9E
:1002600000E010E0802F7ED025E52A95F1F7000010
:100270001F930F93DF92CF92FF92EF92F3D38FE50C
:1002800091E0CFD38FE19EE40197F1F700C0000029
:100290000F900F900F900F900F900F90C0E006C03E
:1002A00087E591E0BED3CF5FC83051F08C2F71D07D
:1002B0008823B1F389E591E0B4D3CF5FC830B1F7BB
:1002C00060D085E591E0ADD3C0E006C089E591E05E
:1002D000A8D3CF5FC83051F08C2F5BD08111F6CFFF
:1002E00087E591E09ED3CF5FC830B1F78BE591E011
:1002F00098D38091000190915E01891B80935E01EB
:100300005AD09FEF23EC89E0915020408040E1F7E4
:1003100000C000000F5F1F4F0231110509F0A2CF8E
:10032000D15009F09DCF1DBA109268001CBC10BEC0
:100330001FBA10926E0010926F001092C90014B88C
:1003400017B81AB815B818B81BB80C94003880E064
:1003500090E0DF91CF911F910F91FF90EF90DF9090
:10036000CF9008959BB1E82FF0E0E75CFE4F892F16
:1003700084789081892B8BB985E08A95F1F700000C
:1003800008958BB18B678BB985E08A95F1F70000F2
:100390000895282F30E0280F311D280F311DF90155
:1003A000EF5FFE4FA081B1819C918281982381E013
:1003B00009F080E0089590E08095909580FD2F9A57
:1003C00080FF2F9828B182959295907F9827807F03
:1003D0009827382F3072922F9F7D932B98B998B120
:1003E00080749F7B892B88B90895CF92DF92FF920A
:1003F0000F931F93CF93DF93CDB7DEB76E970FB6F2
:10040000F894DEBF0FBECDBF80E8809361001092EC
:10041000610085B7806885BF85B7806885BF8FE03C
:10042000EBE1F1E0DE01509601900D928A95E1F743
:100430008FE0EAE2F1E0DE01119601900D928A95DB
:10044000E1F7DE015096AE014C5E5F4FCE010196A2
:100450006C019E012B5F3F4FBE01615E7F4F0D918E
:100460001C911197FA018081982F9095F801F080E6
:100470009F21908312960D911C911397F801908102
:10048000892B8083F60100811181F9018081F801B7
:100490009081982B9083F601028113818095F80159
:1004A00090818923808315964B5F5F4FF5E0CF0ED7
:1004B000D11C2B5F3F4FA617B70789F684B5826022
:1004C00084BD85B5856085BD80E187BD6E960FB61C
:1004D000F894DEBF0FBECDBFDF91CF911F910F917A
:1004E000FF90DF90CF9008951092630080EA809390
:1004F000D80086E089BD09B400FEFDCF80E8809376
:10050000D8001092E00010927B018CE08093E20012
:100510007894089580917B01089590917B019923AF
:1005200009F440C09FB7F89424E02093E90020919B
:10053000780121112FC03091E4003C5F2091E80048
:1005400025FD1CC09FBF9091E400931769F1909125
:100550007B01992339F144E009C09FBF9091E400E9
:10056000931711F190917B019923E1F09FB7F894D3
:100570004093E9002091E80025FFEFCF8093F10040
:100580008091E80085FF15C082E080937A019FBFCB
:1005900080E008952091E80025FF03C010927801C3
:1005A000CACF9FBF8FEF089581E0809378018FEFCE
:1005B00008958AE38093E80010927A019FBF80E05B
:1005C00008951F920F920FB60F9211248F939F934D
:1005D000EF93FF938091E1001092E10083FF0FC041
:1005E0001092E90091E09093EB001092EC0092E2FF
:1005F0009093ED0098E09093F00010927B0182FFC1
:1006000038C080917B018823A1F180917A018823F1
:10061000A9F0815080937A01811110C084E0809309
:10062000E9008091E80085FF06C01092F1008091FA
:10063000E80085FDFACF8AE38093E80080911901F4
:100640008823B9F0809177018F5F80937701837061
:1006500081F483E08093E9008091E80085FF09C080
:10066000809179018F5F80937901909119018917A9
:1006700049F0FF91EF919F918F910F900FBE0F90D6
:100680001F90189510927901809176018093F10066
:100690001092F100E0E7F1E081918093F10081E0B8
:1006A000E637F807C9F78AE38093E800E2CF1F92A4
:1006B0000F920FB60F9211242F933F934F935F9396
:1006C0006F937F938F939F93AF93BF93CF93DF935A
:1006D000EF93FF931092E9008091E80083FF3DC003
:1006E000E091F1008091F1002091F1009091F100F2
:1006F00030E0392B4091F1009091F10050E0DA01A7
:10070000B92B4091F1009091F10050E0BA01792BA2
:1007100092EF9093E8008630B1F1853009F4E9C09A
:10072000893009F477C0883009F49DC08111BBC0BD
:100730008091E80080FFFCCFE23809F45BC180E0E3
:100740008093F1001092F1008EEF8093E80008C0D2
:10075000109719F0119709F4F7C081E28093EB002C
:10076000FF91EF91DF91CF91BF91AF919F918F91C9
:100770007F916F915F914F913F912F910F900FBE9D
:100780000F901F90189549E084E790E003C007960A
:10079000415019F3FC01C591D4912C173D07B9F7CD
:1007A000FC013296C591D491AC17BD0781F7FC01CD
:1007B000349645915491FC01369624916F3F710512
:1007C00011F008F0BEC0621708F4B9C06EEF809156
:1007D000E800982F9570D9F382FDC2CF322F2132D5
:1007E00008F45CC030E2FA01832F94919093F100F9
:1007F000815031968111F9CF8FEF830F90E00196F0
:10080000480F591F231B6093E8002111E0CF3032BD
:10081000F1F2A6CFE1112AC020937B018EEF8093E5
:10082000E80081E02EED31E08093E900A9014F5FFF
:100830005F4FF90194919093EB00992309F4D8C08C
:10084000FA0144914093EC003196E4912D5F3F4FC3
:10085000E093ED008F5F853039F78EE18093EA00F9
:100860001092EA007DCFE03809F44EC0109709F0ED
:1008700071CFE13A09F489C0E13209F06ECF8930D5
:1008800009F44EC08A3009F4C4C08B3009F065CF3A
:1008900020931A018EEF8093E80062CF2111A3CF3D
:1008A0006093E8005DCF982F9D7F9130F9F6E2309C
:1008B000E9F6232B09F04CCF2A2F2F779FEF920FC9
:1008C000943008F045CF9EEF9093E8002093E90024
:1008D000833009F442CF89E18093EB0081E090E01E
:1008E00001C0880F2A95EAF78093EA001092EA0087
:1008F00037CF8EEF8093E8008091E80080FFFCCF37
:1009000020682093E3002CCF8091E80080FFFCCF8B
:1009100080917B018093F1008EEF8093E80020CFDF
:100920008091E80082FFFCCF8091F10080936F01FD
:100930008BEF8093E8008EEF8093E80011CF262F95
:1009400045CF6FEF70E03FCF813009F006CFE13A3D
:1009500009F003CF462F2EEF8091E800982F957075
:10096000D9F382FDFDCE942F413208F44DC090E2C0
:10097000892F1092F1008150E1F7491B2093E80084
:100980004111EACF903241F3EBCE813089F08230D1
:1009900031F1833009F0E1CE8091E80080FFFCCF97
:1009A00080911A018093F1008EEF8093E800D8CEF9
:1009B0008091E80080FFFCCF809176018093F10068
:1009C0001092F100E0E7F1E081918093F10081E085
:1009D000E637F807C9F78EEF8093E800C1CE809123
:1009E000E80080FFFCCF809119018093F100F3CFE4
:1009F0009A0130CFA093E9008091EB0085FB882716
:100A000080F91092E9009CCE4111B2CF2093E8000A
:100A1000A7CE30931901109279018EEF8093E800F0
:100A20009FCE0F931F93CF938C010F5F1F4FFC013D
:100A3000C081C11108C012C08C2F6FDDF801C191B7
:100A40008F01CC2359F0CA30B9F78DE066DD8C2FC9
:100A500064DDF801C1918F01C111F5CFCF911F91D4
:100A60000F910895AEE0B0E0E7E3F5E0A3C20D8991
:100A70001E8986E08C831A8309838FEF9FE79E830C
:100A80008D83AE01475E5F4F6F89788DCE010196F1
:100A900009D02F813885F801E20FF31F10822E96BE
:100AA000E4E0A4C2ACE0B0E0E7E5F5E075C27C01AB
:100AB0006B018A01FC0117821682838181FFB0C11C
:100AC000CE0101964C01F7019381F60193FD8591CA
:100AD00093FF81916F01882309F49EC1853239F417
:100AE00093FD859193FF81916F01853221F4B701C8
:100AF00090E0B1D1E8CF512C312C20E02032A0F48D
:100B00008B3269F030F4803259F0833269F420611D
:100B10002CC08D3239F0803339F4216026C0226038
:100B2000246023C0286021C027FD27C030ED380F86
:100B30003A3078F426FF06C0852D6AE024D2582E7C
:100B4000530E13C0832D6AE01ED2382E330E20625E
:100B50000CC08E3221F426FD5FC1206406C08C36A5
:100B600011F4206802C0883641F4F60193FD8591A6
:100B700093FF81916F018111C1CF982F9F7D955473
:100B8000933028F40C5F1F4FFFE3F9830DC08336C9
:100B900031F0833771F0833509F057C021C0F80177
:100BA000808189830E5F1F4F44244394512C54014C
:100BB00014C03801F2E06F0E711CF801A080B18002
:100BC00026FF03C0652D70E002C06FEF7FEFC50107
:100BD0002C8736D12C0183012C852F77222E16C02D
:100BE0003801F2E06F0E711CF801A080B18026FF81
:100BF00003C0652D70E002C06FEF7FEFC5012C8749
:100C000014D12C012C852068222E830123FC19C0CD
:100C1000832D90E048165906A0F4B70180E290E0D9
:100C20001AD13A94F5CFF50127FC859127FE8191E1
:100C30005F01B70190E00FD131103A94F1E04F1A03
:100C400051084114510479F7DEC0843611F0893619
:100C500031F5F80127FF07C060817181828193819E
:100C60000C5F1F4F08C060817181072E000C880B3C
:100C7000990B0E5F1F4F2F76722E97FF09C090952C
:100C80008095709561957F4F8F4F9F4F2068722E92
:100C90002AE030E0A40117D1A82EA81843C0853758
:100CA00029F42F7EB22E2AE030E025C0F22FF97F02
:100CB000BF2E8F36C1F018F4883579F0ADC080377B
:100CC00019F0883721F0A8C02F2F2061B22EB4FE72
:100CD0000DC08B2D8460B82E09C024FF0AC09F2F41
:100CE0009660B92E06C028E030E005C020E130E073
:100CF00002C020E132E0F801B7FE07C060817181D7
:100D0000828193810C5F1F4F06C06081718180E0FA
:100D100090E00E5F1F4FA401D6D0A82EA818FB2D7F
:100D2000FF777F2E76FE0BC0372D3E7FA51450F443
:100D300074FE0AC072FC08C0372D3E7E05C0BA2C76
:100D4000372D03C0BA2C01C0B52C34FF0DC0FE01F5
:100D5000EA0DF11D8081803311F4397E09C032FF24
:100D600006C0B394B39404C0832F867809F0B3947B
:100D700033FD12C030FF06C05A2CB31418F4530CC4
:100D80005B18B32CB31460F4B70180E290E03C87A9
:100D900062D0B3943C85F6CFB31410F43B1801C075
:100DA000312C34FF11C0B70180E390E03C8753D071
:100DB0003C8532FF16C031FD03C088E790E002C0D9
:100DC00088E590E0B7010CC0832F867851F031FFA1
:100DD00002C08BE201C080E237FD8DE2B70190E0F6
:100DE0003AD0A51430F4B70180E390E034D05A949F
:100DF000F8CFAA94F401EA0DF11D8081B70190E0CB
:100E00002AD0A110F6CF332009F45DCEB70180E2DD
:100E100090E021D03A94F7CFF7018681978102C004
:100E20008FEF9FEF2C96E2E1D3C0FC01059061505B
:100E300070400110D8F7809590958E0F9F1F0895F0
:100E4000FC016150704001900110D8F78095909599
:100E50008E0F9F1F08950F931F93CF93DF93FB0176
:100E6000238121FD03C08FEF9FEF28C022FF16C012
:100E700046815781248135814217530744F4A0816C
:100E8000B1819D012F5F3F4F318320838C93268159
:100E900037812F5F3F4F3783268310C0EB01092F27
:100EA000182F0084F185E02D0995892BE1F68E81BC
:100EB0009F8101969F838E83812F902FDF91CF9109
:100EC0001F910F910895FA01AA27283061F120316E
:100ED00091F1E8946F936E7F6E5F7F4F8F4F9F4FBE
:100EE000AF4FB1E040D0B4E03ED0670F781F891F0C
:100EF0009A1FA11D680F791F8A1F911DA11D6A0FDE
:100F0000711D811D911DA11D22D009F468943F918E
:100F1000062E000C3019000C000C3019305D319396
:100F2000CEF6CF010895462F4770405D4193B3E060
:100F30000FD0C9F7F6CF462F4F70405D4A3318F0F7
:100F4000495D31FD4052419302D0A9F7EACFB4E0A8
:100F5000A6959795879577956795BA95C9F7009760
:100F60006105710508959B01AC010A2E0694579501
:100F7000479537952795BA95C9F7620F731F841F58
:100F8000951FA01D0895002480FD060E660F11F028
:100F90008695D1F7802D08952F923F924F925F92C0
:100FA0006F927F928F929F92AF92BF92CF92DF9279
:100FB000EF92FF920F931F93CF93DF93CDB7DEB7DE
:100FC000CA1BDB0B0FB6F894DEBF0FBECDBF099472
:100FD0002A88398848885F846E847D848C849B84C9
:100FE000AA84B984C884DF80EE80FD800C811B81D7
:100FF000AA81B981CE0FD11D0FB6F894DEBF0FBE06
:0A100000CDBFED010895F894FFCF75
:10100A00072600802300202300102300402300022B
:10101A002300042300082300017D01240025007F0A
:10102A0027002800802A002B0000240025008027A2
:10103A00002800602A002B007B1B436A79627161D9
:10104A007060682B33237813690B3B7B726F7720B0
:0E105A00253032643A2000300031000A0000D8
:00000001FF
