:10000000F2C000000BC1000009C1000007C10000E0
:1000100005C1000003C1000001C10000FFC00000D5
:10002000FDC00000FBC00000F9C0000012C30000CA
:1000300084C30000F3C00000F1C00000EFC0000066
:10004000EDC00000EBC00000E9C0000061C100008D
:10005000E5C00000E3C00000E1C00000DFC0000018
:10006000DDC00000DBC00000D9C00000D7C0000028
:10007000D5C0000000010000BB001200020000CD4E
:10008000003B0022000008013F00210000DF0009C2
:100090000022010047011500210100F800090003BA
:1000A00000005C01040103090460014E020309041D
:1000B000B00134000001C10601C126120100020096
:1000C000000020C0167D0400010102000109023B6E
:1000D00000020100C032090400000103010100090F
:1000E0002111010001223F000705830308000109D7
:1000F0000401000103000000092111010001221583
:10010000000705840320000105010906A10175010E
:100110009508050719E029E71500250181029501D9
:1001200075088103950575010508190129059102D6
:100130009501750391039506750815002568050757
:10014000190029688100C00631FF0974A1537508A0
:10015000150026FF00952009758102C004030904DB
:100160004E03420061007400680072006F006F006F
:100170006D0020004500700069007000680061009B
:100180006E006900650073002C00200043006F00C2
:10019000730074006100720020004B00650079005C
:1001A00062006F0061007200640020002D000000FA
:1001B000340343004D002000530074006F007200B0
:1001C0006D00200051007500690063006B00200085
:1001D0004600690072006500200052006100700056
:1001E00069006400000011241FBECFEFD4E0DEBF21
:1001F000CDBF12E0A0E0B1E0E0ECFAE002C0059073
:100200000D92A237B107D9F713E0A2E7B2E001C01F
:100210001D92A13AB107E1F70CD150C4F1CECF93B2
:10022000DF93A0E0B1E0C5E7D2E00BC0F0E0EE0F55
:10023000FF1FE95FFE4F8181899381E0A630B807F7
:1002400049F0ED91EF3F91F780E0899381E0A6308E
:10025000B807B9F78091730280937B02DF91CF9149
:10026000B2C1282F30E0220F331FF901EF57FD4FA5
:1002700091E09083F901E95FFE4F90819130B9F0F0
:1002800090910401909305019091030190930401D2
:1002900090910201909303019091010190930201CA
:1002A000909100019093010180930001B8CF80915B
:1002B00073029181892B80937302B1CF282F30E094
:1002C000220F331FF901EF57FD4F1082F901E95F4B
:1002D000FE4F90819130A1F0E0E0F1E090E02191BB
:1002E000281721F09F5F9630D1F799CFE92FF0E0E2
:1002F000E050FF4F818180839F5F9630B9F7F5CF43
:10030000918190958091730289238093730287CFA6
:100310001F920F920FB60F921124BF92CF92DF92CD
:10032000EF92FF920F931F932F933F934F935F93FF
:100330006F937F938F939F93AF93BF93CF93DF93ED
:10034000EF93FF9321D1C12CB12C8B2D75D0F12CC3
:100350000AC0803819F1CF57DD4F880F8983F39495
:10036000F8E0FF1671F1EF2CEC0CCE2DD0E0CC0FA5
:10037000DD1F8E010F571D4FF801D1808F2D6ED0DC
:100380008D29F80181838F3721F790819111E3CF77
:100390008E2D67DFF80181818038E9F68E010F57D5
:1003A0001D4FF80190819923B1F28E2D87DFF8015E
:1003B0008181CF57DD4F880F8983F394F8E0FF12D6
:1003C000D2CFCF0EB39480E9C812BFCF43D0809173
:1003D000740255D0D3D0FF91EF91DF91CF91BF91AF
:1003E000AF919F918F917F916F915F914F913F91CD
:1003F0002F911F910F91FF90EF90DF90CF90BF90C2
:100400000F900FBE0F901F901895C4D0D9D088239D
:10041000E9F336D010927302E2E8F2E0DF011197BF
:100420001C921082329683E0E23AF807B9F778948A
:100430000895EBDFA3D0FFCF95B1E82FF0E0E15AAC
:10044000FD4F91788081982B95B985E08A95F1F7D9
:10045000000008958BB18E678BB9089590E0FC0180
:10046000EE0FFF1FE80FF91FE95DFD4FA081B1817D
:100470009C918281982381E009F080E0089508959D
:10048000CF92DF92FF920F931F93CF93DF93CDB75D
:10049000DEB76E970FB6F894DEBF0FBECDBF80E813
:1004A000809361001092610085B7806885BF85B731
:1004B000806885BF8FE0E1E4F2E0DE0150960190B4
:1004C0000D928A95E1F78FE0E0E5F2E0DE0111960A
:1004D00001900D928A95E1F7FE0170969E012C5EC7
:1004E0003F4FCC24C394D12CCC0EDD1ECE010596FB
:1004F000BE01615E7F4F40815181D9010C91F02E88
:10050000F094DA011C911F211C9342815381DA017E
:100510001C91102B1C93D6014D915C91DC010C9128
:10052000DA011C91102B1C93D60112964D915C910F
:1005300013970095DA011C9110231C9335962B5FBD
:100540003F4FB5E0CB0ED11C0596E617F70799F69D
:1005500084B5826084BD85B5856085BD80E187BD39
:100560006E960FB6F894DEBF0FBECDBFDF91CF9170
:100570001F910F91FF90DF90CF900895EEE6F0E08D
:100580008081826080830895EEE6F0E080818D7F37
:10059000808308951092630080EA8093D80086E0FB
:1005A00089BD09B400FEFDCF80E88093D800109289
:1005B000E00010927D028CE08093E2007894089530
:1005C00080917D02089580917D02882309F43FC0C7
:1005D0008FB7F89493E09093E9002091E4002E5CAB
:1005E0009091E80095FD1CC08FBF80917D0288230B
:1005F00071F18091E400821751F133E009C08FBF9F
:1006000080917D02882319F18091E4008217F9F02E
:100610008FB7F8943093E9009091E80095FFEFCF01
:1006200090917B029093F1001092F100E5E7F2E0E7
:1006300091919093F10092E0EB37F907C9F79AE3B3
:100640009093E80010927E028FBF80E008958FEFB4
:1006500008951F920F920FB60F9211248F939F93BC
:10066000EF93FF938091E1001092E10083FF0FC0B0
:100670001092E90091E09093EB001092EC0092E26E
:100680009093ED0098E09093F00010927D0282FF2D
:1006900036C080917D02882391F180917C0288236D
:1006A000A9F0815080937C02811110C084E0809376
:1006B000E9008091E80085FF06C01092F10080916A
:1006C000E80085FDFACF8AE38093E80090913F022D
:1006D0009923A9F0809180028F5F809380028370BC
:1006E00071F483E08093E9008091E80085FF07C002
:1006F00080917E028F5F80937E02891749F0FF917F
:10070000EF919F918F910F900FBE0F901F901895B2
:1007100010927E0280917B028093F1001092F10092
:10072000E5E7F2E081918093F10082E0EB37F80792
:10073000C9F78AE38093E800E2CF1F920F920FB6C9
:100740000F9211242F933F934F935F936F937F9357
:100750008F939F93AF93BF93CF93EF93FF93109299
:10076000E9008091E80083FF3CC0F091F100E09146
:10077000F1002091F1003091F100932F80E0AC0165
:10078000422B2091F1003091F100932F80E0BC01C9
:10079000622B2091F1003091F100932F80E0DC0179
:1007A000A22B82EF8093E800E63081F1E53009F476
:1007B000BEC0E93009F472C0E83009F498C0E11114
:1007C000C1C08091E80080FFFCCFF23809F440C13D
:1007D00080E08093F1001092F1008EEF8093E800AA
:1007E00003C081E28093EB00FF91EF91CF91BF9125
:1007F000AF919F918F917F916F915F914F913F91B9
:100800002F910F900FBE0F901F901895C9E084E7AD
:1008100090E003C00796C15021F3FC01259134916B
:1008200042175307B9F7FC013296259134916217AC
:10083000730781F7FC013496459154919A01FC01AC
:1008400036965491AF3FB10511F008F0BAC0A51724
:1008500008F4B5C07EEF9091E800492F4570D9F3B8
:1008600092FDC2CF652F513208F45CC060E2C9012D
:10087000462FFC010196E491E093F1004150C9F745
:10088000862F815090E00196280F391F561B7093D8
:10089000E8005111E0CF6032F1F2A6CFF1112AC089
:1008A00040937D028EEF8093E80041E083EB90E07F
:1008B0004093E9009C012F5F3F4FFC0154915093FE
:1008C000EB00552309F4C2C0F90124912093EC00F8
:1008D000FC0132960396E491E093ED004F5F4530C2
:1008E00039F78EE18093EA001092EA007DCFF0386C
:1008F00009F459C06115710591F5F13A09F473C015
:10090000F13209F06ECFE93009F45EC0EA3009F443
:10091000CDC0EB3009F065CF409340028EEF80935D
:10092000E80062CF5111A3CF7093E8005DCF8EEF46
:100930008093E8008091E80080FFFCCF40684093FE
:10094000E30052CFE13011F0E330A1F6F23091F63E
:10095000452B09F48CC06115710509F442CF613053
:10096000710509F03ECFE13009F03BCFF13A09F0D3
:1009700038CF2EEF8091E800982F9570D9F382FD43
:1009800033CF9A2FA13208F46DC090E2892F1092D4
:10099000F1008150E1F7A91B2093E800A111EACFF3
:1009A000903241F321CF8091E80080FFFCCF80910D
:1009B0007D028093F1008EEF8093E80015CF5A2FCF
:1009C00049CFAFEFB0E043CF8091E80082FFFCCF8A
:1009D0008091F100809374028BEF8093E8008EEF9A
:1009E0008093E80001CFE13089F0E23019F1E33083
:1009F00009F0F7CE8091E80080FFFCCF80914002A3
:100A00008093F1008EEF8093E800EECE8091E800B5
:100A100080FFFCCF80917B028093F1001092F10067
:100A2000E5E7F2E081918093F10082E0EB37F8078F
:100A3000C9F774CF8091E80080FFFCCF80913F021E
:100A40008093F1008EEF8093E800CECEC90146CFAF
:100A50006093E9008091EB0085FB882780F9109274
:100A6000E900B7CEA11192CF2093E800BDCE9B0143
:100A70002F773327822F8150843008F06CCF8EEF90
:100A80008093E8002093E900E33009F4AACE89E1DD
:100A90008093EB0081E090E0022E01C0880F0A9461
:100AA000EAF78093EA001092EA009ECE50933F024C
:100AB00010927E028EEF8093E80096CEF894FFCFDE
:100AC000FFFFFFFFFFFFFF000000000000018000AC
:100AD00000000000000000000000000102012000F2
:100AE000000000000000000050000000000058005E
:100AF0004A004D00520057000000000108000000AD
:100B00000000000000000000560055005E005B0081
:100B10004B004E0063006100380000002F003300DE
:100B20002D0027003400130000001D002B000400DE
:100B300035001E002900140000001B0039001600BB
:100B40003A001F0064001A00000006003C00070085
:100B50003B0020003D0008000500190017000900B7
:100B6000220021000A001500110010001C000D00D9
:100B7000230024000B0018000000360030000E0097
:100B80002E0025003F000C006500370040000F00DC
:100B9000410026000000120140000000000000009B
:100BA0000000460104004700450028002A003100EB
:100BB000420043004400000000011000000000015A
:100BC00001003E0000004800510053005C00590045
:100BD0004C0000002C005F004F0054005D005A00E4
:100BE000490000006200602600042900012900027B
:100BF0002600802900202900402900042900107DBA
:100C000001240025000027002800842A002B0077FB
:100C100024002500FE27002800602A002B00003C4D
:100C20006638721E3E626064686A6C6E70583A1A6A
:020C30001800AA
:00000001FF
