:10000000E1C00000FAC00000F8C00000F6C0000027
:10001000F4C00000F2C00000F0C00000EEC000001C
:10002000ECC00000EAC00000E8C0000014C30000FB
:1000300088C30000E2C00000E0C00000DEC0000095
:10004000DCC00000DAC00000D8C0000046C10000DB
:10005000D4C00000D2C00000D0C00000CEC000005C
:10006000CCC00000CAC00000C8C00000C6C000006C
:10007000C4C0000000010000AA0112000200001B21
:10008000013B002200006B013F002100002D01090F
:10009000002201005601150021010046010900035C
:1000A000000017010401030904C7004E02030904FC
:1000B000B30012120352006F0073006500770069ED
:1000C000006C006C0000004E034200610074006888
:1000D0000072006F006F006D002000450070006925
:1000E000007000680061006E006900650073002CFC
:1000F00000200043006F0073007400610072002054
:10010000004B006500790062006F006100720064BE
:100110000020002D0000000403090409023B000236
:100120000100C0320904000001030101000921118E
:10013000010001223F0007058303080001090401B3
:100140000001030000000921110100012215000730
:100150000584032000010631FF0974A153750815B9
:100160000026FF00952009758102C005010906A13E
:100170000175019508050719E029E715002501819A
:100180000295017508810395057501050819012976
:1001900005910295017503910395067508150025D3
:1001A000680507190029688100C0120100020000DB
:1001B0000020C0167D04000101020001000001C101
:1001C0000601C12611241FBECFEFD4E0DEBFCDBF94
:1001D00012E0A0E0B1E0EEEBFAE002C005900D9273
:1001E000A237B107D9F713E0A2E7B2E001C01D9230
:1001F000A13AB107E1F705D160C402CFCF93DF93F5
:10020000A0E0B1E0C5E7D2E00BC0F0E0EE0FFF1FC9
:10021000E95FFE4F8181899381E0A630B80749F0FC
:10022000ED91EF3F91F780E0899381E0A630B80728
:10023000B9F78091730280937B02DF91CF91C5C1A2
:10024000282F30E0220F331FF901EF57FD4F91E0C7
:100250009083F901E95FFE4F908191110DC0E5E0B7
:10026000F1E0A6E0B1E092919E9391E0E030F907D1
:10027000D1F780930001C2CF809173029181892BC5
:1002800080937302BBCF282F30E0220F331FF90178
:10029000EF57FD4F1082F901E95FFE4F90819111F8
:1002A00014C0E0E0F1E090E02191281721F09F5F79
:1002B0009630D1F7A3CFE92FF0E0E050FF4F8181D6
:1002C00080839F5F9630B9F7F5CF918190958091AB
:1002D000730289238093730291CF1F920F920FB6FE
:1002E0000F921124BF92CF92DF92EF92FF920F9361
:1002F0001F932F933F934F935F936F937F938F93AE
:100300009F93AF93BF93CF93DF93EF93FF933ED130
:10031000C12CB12C8B2D78D0F12C0BC0803809F476
:100320004AC0CF57DD4F880F8983F394F8E0FF165A
:10033000F1F0EF2CEC0CCE2DD0E0CC0FDD1F8E01B8
:100340000F571D4FF801D1808F2D70D08D29F801E6
:1003500081838F3719F790819923D1F18FE7CF5798
:10036000DD4F880F8983F394F8E0FF12E2CFCF0EC0
:10037000B39480E9C812CECF55D08091740267D073
:10038000FFD0FF91EF91DF91CF91BF91AF919F91FE
:100390008F917F916F915F914F913F912F911F911D
:1003A0000F91FF90EF90DF90CF90BF900F900FBE16
:1003B0000F901F9018958E010F571D4FF8019081D7
:1003C000992309F4AECF8E2D5EDFF8018181A9CF8C
:1003D0008E2D36DFF8018181A1CFDED0F3D08823C6
:1003E000E9F352D010927302E2E8F2E0DF011197D4
:1003F0001C921082329683E0E23AF807B9F77894BB
:100400000895EBDFBDD0FFCF9BB1E82FF0E0E15ABC
:10041000FD4F98788081982B9BB985E08A95F1F7FC
:10042000000008958BB187678BB90895E82FF0E03D
:10043000E80FF11DE80FF11DE95DFD4FA081B181CD
:100440009C918281982381E009F080E0089525B194
:1004500090E080959095880F991F82959295907F56
:100460009827807F9827982F90782F77922B95B98F
:1004700028B1982F90722F7D922B98B998B18074E3
:100480009F7B892B88B90895CF92DF92FF920F93BB
:100490001F93CF93DF93CDB7DEB76E970FB6F89467
:1004A000DEBF0FBECDBF80E8809361001092610077
:1004B00085B7806885BF85B7806885BF8FE0E1E438
:1004C000F2E0DE01509601900D928A95E1F78FE0FF
:1004D000E0E5F2E0DE01119601900D928A95E1F7D8
:1004E000FE0170969E012C5E3F4FCE0101966C017D
:1004F000CE010596BE01615E7F4F40815181D901D9
:100500000C91F02EF094DA011C911F211C93428172
:100510005381DA011C91102B1C93D6014D915C91F3
:10052000DC010C91DA011C91102B1C93D601129660
:100530004D915C9113970095DA011C9110231C9347
:1005400035962B5F3F4FB5E0CB0ED11C0596E617D5
:10055000F70799F684B5826084BD85B5856085BD51
:1005600080E187BD6E960FB6F894DEBF0FBECDBF9B
:10057000DF91CF911F910F91FF90DF90CF90089561
:10058000EEE6F0E08081826080830895EEE6F0E0A0
:1005900080818D7F808308951092630080EA80932C
:1005A000D80086E089BD09B400FEFDCF80E88093C5
:1005B000D8001092E000109280028CE08093E2005C
:1005C0007894089580918002089580918002882314
:1005D00009F43FC08FB7F89493E09093E90020911D
:1005E000E4002E5C9091E80095FD1CC08FBF8091C7
:1005F0008002882371F18091E400821751F133E089
:1006000009C08FBF80918002882319F18091E40096
:100610008217F9F08FB7F8943093E9009091E800D1
:1006200095FFEFCF90917B029093F1001092F10033
:10063000E5E7F2E091919093F10092E0EB37F90752
:10064000C9F79AE39093E80010927E028FBF80E092
:1006500008958FEF08951F920F920FB60F921124F5
:100660008F939F93EF93FF938091E1001092E100AD
:1006700083FF0FC01092E90091E09093EB0010927D
:10068000EC0092E29093ED0098E09093F0001092CD
:10069000800282FF38C0809180028823A1F180917E
:1006A0007F028823A9F0815080937F02811110C0BE
:1006B00084E08093E9008091E80085FF06C01092F5
:1006C000F1008091E80085FDFACF8AE38093E8008D
:1006D00080913F028823B9F080917C028F5F8093E4
:1006E0007C02837081F483E08093E9008091E800CC
:1006F00085FF09C080917E028F5F80937E0290917A
:100700003F02891749F0FF91EF919F918F910F90D0
:100710000FBE0F901F90189510927E0280917B0261
:100720008093F1001092F100E5E7F2E0819180936F
:10073000F10082E0EB37F807C9F78AE38093E8001D
:10074000E2CF1F920F920FB60F9211242F933F9377
:100750004F935F936F937F938F939F93AF93BF93C9
:10076000CF93EF93FF931092E9008091E80083FF0D
:1007700049C0E091F1008091F1002091F100909149
:10078000F10030E0392B4091F1009091F10050E000
:10079000592B6091F1009091F10070E0792B92EF6C
:1007A0009093E800863009F442C0853009F4CCC04B
:1007B000893009F483C0883009F4A7C0811110C0C2
:1007C0008091E80080FFFCCFE23809F43BC180E073
:1007D0008093F1001092F1008EEF8093E80015C035
:1007E000982F9D7F913009F092C0E23009F08FC0C0
:1007F000232B09F43CC14115510521F0413051052D
:1008000009F4CDC081E28093EB00FF91EF91CF918D
:10081000BF91AF919F918F917F916F915F914F9118
:100820003F912F910F900FBE0F901F901895C9E028
:1008300084E790E003C00796C15021F3FC01A59125
:10084000B4912A173B07B9F7FC013296A591B491F0
:100850004A175B0781F7FC01349625913491FC011E
:10086000369654916F3F710511F008F093C06517EB
:1008700008F493C07EEF9091E800492F4570D9F3BA
:1008800092FDC3CF652F513208F459C060E2F901DF
:10089000962F44914093F100915031969111F9CFE8
:1008A0008FEF860F90E00196280F391F561B70932B
:1008B000E8005111E0CF6032F1F2A7CFE11127C07B
:1008C000209380028EEF8093E80041E08CEB91E072
:1008D0004093E9009C012F5F3F4FFC0154915093DE
:1008E000EB00552361F0F90124912093EC009C0169
:1008F0002D5F3F4FFC01329684918093ED004F5F56
:10090000453009F4A9C0C901E3CFE03841F14115F0
:10091000510509F073CFE13A09F461C0E13209F001
:1009200071CF893041F18A3009F4BFC08B3009F0B2
:1009300069CF209340028EEF8093E80066CF51117B
:10094000A6CF7093E80061CF8EEF8093E80080918E
:10095000E80080FFFCCF20682093E30056CF809111
:10096000E80080FFFCCF809180028093F1008EEF41
:100970008093E8004ACF8091E80082FFFCCF80910D
:10098000F100809374028BEF8093E8008EEF8093E8
:10099000E8003BCF6FEF70E06ACF562F6BCF81300E
:1009A00009F030CFE13A09F02DCF2EEF8091E80029
:1009B000982F9570D9F382FD28CF962F613208F4D5
:1009C00051C090E2892F1092F1008150E1F7691B2C
:1009D0002093E8006111EACF903241F316CF8130C5
:1009E00089F0823031F1833009F00CCF8091E8003A
:1009F00080FFFCCF809140028093F1008EEF8093C6
:100A0000E80003CF8091E80080FFFCCF80917B025B
:100A10008093F1001092F100E5E7F2E0819180937C
:100A2000F10082E0EB37F807C9F78EEF8093E8001A
:100A3000ECCE8091E80080FFFCCF80913F02809354
:100A4000F100F3CF4093E9008091EB0085FB88270C
:100A500080F91092E900BCCE8EE18093EA001092FA
:100A6000EA00D3CE6111AECF2093E800CECE242F82
:100A70002F779FEF920F943008F0BDCE9EEF9093AA
:100A8000E8002093E900833009F4BCCE89E180932B
:100A9000EB0081E090E0022E01C0880F0A94EAF793
:100AA0008093EA001092EA00B0CE30933F02109299
:0E0AB0007E028EEF8093E800A8CEF894FFCF70
:100ABE00FFFFFFFFFFFFFF0000011000000000011D
:100ACE000100480000003E00450028002A003100C9
:100ADE0042000000440043014000000000000000FE
:100AEE0000004701040046006500370040000F007B
:100AFE0041001200000026000000360030000E00FB
:100B0E002E000C003F002500110010001C000D00EF
:100B1E00230018000B00240005001900170009001F
:100B2E00220015000A002100000006003C0007000C
:100B3E003B0008003D00200000001B00390016009D
:100B4E003A001A0064001F0000001D002B00040074
:100B5E003500140029001E00510053005C0059009E
:100B6E004C005F002C0000004F0054005D005A0046
:100B7E0049006000620000000000000000018000DB
:100B8E000000000000000000000000010201200033
:100B9E00000000000000000050000000000058009F
:100BAE004A00570052004D000000000108000000EE
:100BBE000000000000000000560055005E005B00C3
:100BCE004B00610063004E00380000002F00330020
:100BDE002D001300340027260004230008230010E4
:100BEE002300042300022600802300402300207DE2
:100BFE0001240025007E27002800842A002B0000F7
:100C0E00240025008027002800602A002B0077761C
:100C1E0061650307131723273372667064604743B9
:020C2E0037008D
:00000001FF
