:10000000EFC0000008C1000006C1000004C10000EC
:1000100002C1000000C10000FEC00000FCC00000E2
:10002000FAC00000F8C00000F6C00000FDC20000E9
:1000300071C30000F0C00000EEC00000ECC0000082
:10004000EAC00000E8C00000E6C0000067C1000090
:10005000E2C00000E0C00000DEC00000DCC0000024
:10006000DAC00000D8C00000D6C00000D4C0000034
:10007000D2C0000000010000C601120002000037DB
:10008000013B0022000087013F00210000490109D7
:100090000022010072011500210100620109000324
:1000A000000033010401030904E3004E02030904C4
:1000B000B3002E2E0343004D002000530074006F48
:1000C0000072006D00200051007500690063006B34
:1000D00000200046006900720065002000580054AE
:1000E0000000004E03420061007400680072006F5F
:1000F000006F006D0020004500700069007000680E
:100100000061006E006900650073002C0020004350
:10011000006F00730074006100720020004B0065E6
:1001200000790062006F0061007200640020002D01
:100130000000000403090409023B00020100C03270
:10014000090400000103010100092111010001223D
:100150003F000705830308000109040100010300B3
:100160000000092111010001221500070584032068
:1001700000010631FF0974A1537508150026FF0020
:10018000952009758102C005010906A10175019537
:1001900008050719E029E715002501810295017579
:1001A0000881039505750105081901290591029536
:1001B0000175039103950675081500256805071953
:1001C0000029688100C01201000200000020C01652
:1001D0007D04000101020001000001C10601C126E9
:1001E00011241FBECFEFD4E0DEBFCDBF12E0A0E0F0
:1001F000B1E0E6E8FAE002C005900D92A237B1073F
:10020000D9F723E0A2E7B2E001C01D92A13AB207FC
:10021000E1F714D036C4F4CEA8D1BDD18823E9F3D8
:100220002AD110927302E1E8F2E010821182329634
:1002300083E0E13AF807C9F778940895EDDF89D1B2
:10024000FFCFCF93DF93A0E0B1E0C5E7D2E00BC0D2
:10025000F0E0EE0FFF1FE95FFE4F8181899381E09F
:10026000A630B80749F0ED91EF3F91F780E0899310
:1002700081E0A630B807B9F78091730280937B02C2
:10028000DF91CF918BC1282F30E0220F331FF9016E
:10029000EF57FD4F91E09083F901E95FFE4F9081A8
:1002A00091110BC0E5E0F1E09291918391E0E03093
:1002B000F907D1F780930001C4CF90917302818137
:1002C000892B80937302BDCF282F30E0220F331F7C
:1002D000F901EF57FD4F1082F901E95FFE4F908160
:1002E000911114C0E0E0F1E090E02191821721F03B
:1002F0009F5F9630D1F7A5CFE92FF0E0E050FF4F98
:10030000818180839F5F9630B9F7F5CF8181809599
:100310009091730289238093730293CF1F920F925F
:100320000FB60F921124CF92DF92EF92FF920F93AC
:100330001F932F933F934F935F936F937F938F936D
:100340009F93AF93BF93CF93DF93EF93FF9307D127
:10035000D12CC12C8C2D5CD010E009C0803811F15B
:10036000CF57DD4F880F89831F5F183071F10D2D36
:10037000010F812F5CD0C02FD0E0CC0FDD1F9E017C
:100380002F573D4F7901F9019181892B81838F3757
:1003900029F790819111E4CF802F75DFF7018181DA
:1003A0008038F1F69E012F573D4F7901F901908178
:1003B0009923B1F2802F88DFF7018181CF57DD4F7C
:1003C000880F89831F5F183091F6F8E0DF0EC39421
:1003D00020E9D212BFCF809174023BD0BAD0FF91F6
:1003E000EF91DF91CF91BF91AF919F918F917F91CD
:1003F0006F915F914F913F912F911F910F91FF90BE
:10040000EF90DF90CF900F900FBE0F901F90189538
:100410002BB12178E82FF0E0E15AFD4F9081822F37
:10042000892B8BB985E08A95F1F700000895282F74
:1004300030E0280F311D280F311DF901E95DFD4F16
:10044000A081B1819C918281982381E009F080E0B4
:10045000089580FF08C0459881FF08C0469882FD36
:1004600008C02F9A0895459A81FDF8CF469A82FFD9
:10047000F8CF2F9808950F931F93CF93DF93CDB7A5
:10048000DEB76E970FB6F894DEBF0FBECDBF80E823
:10049000809361001092610085B7806885BF85B741
:1004A000806885BF8FE0E1E4F2E0DE0150960190C4
:1004B0000D928A95E1F78FE0E0E5F2E0DE0111961A
:1004C00001900D928A95E1F7DE0150968E010F5F43
:1004D0001F4F9E01215E3F4F4D915C9111971496E5
:1004E0008C911497982F9095FA01608196239083B0
:1004F00012964D915C911397FA019081892B80831C
:10050000F801408151818481FA019081982B908378
:10051000F801428153818095FA019081892380837B
:1005200015960B5F1F4F2A173B07B1F684B5826003
:1005300084BD85B5856085BD80E187BD6E960FB6AB
:10054000F894DEBF0FBECDBFDF91CF911F910F9109
:100550000895EEE6F0E08081826080830895EEE603
:10056000F0E080818D7F808308951092630080EA9F
:100570008093D80086E089BD09B400FEFDCF80E8F5
:100580008093D8001092E000109280028CE080935B
:10059000E20078940895809180020895809180020D
:1005A000882309F43FC08FB7F89493E09093E90053
:1005B0002091E4002E5C9091E80095FD1CC08FBF57
:1005C00080918002882371F18091E400281751F115
:1005D00033E009C08FBF80918002882319F1809198
:1005E000E4002817F9F08FB7F8943093E900909160
:1005F000E80095FFEFCF90917B029093F10010926D
:10060000F100E5E7F2E091919093F10092E0EB3791
:10061000F907C9F79AE39093E80010927E028FBF22
:1006200080E008958FEF08951F920F920FB60F92FA
:1006300011248F939F93EF93FF938091E100109289
:10064000E10083FF0FC01092E90091E09093EB006E
:100650001092EC0092E29093ED0098E09093F000FD
:100660001092800282FF38C0809180028823A1F11D
:1006700080917F028823A9F0815080937F028111AD
:1006800010C084E08093E9008091E80085FF06C0F7
:100690001092F1008091E80085FDFACF8AE3809303
:1006A000E80080913F028823B9F080917C028F5F3F
:1006B00080937C02837081F483E08093E9008091D1
:1006C000E80085FF09C080917E028F5F80937E02E3
:1006D00090913F02891749F0FF91EF919F918F917F
:1006E0000F900FBE0F901F90189510927E02809170
:1006F0007B028093F1001092F100E5E7F2E0819136
:100700008093F10082E0EB37F807C9F78AE3809322
:10071000E800E2CF1F920F920FB60F9211242F9391
:100720003F934F935F936F937F938F939F93AF9379
:10073000BF93EF93FF931092E9008091E80083FF4D
:100740003DC0E091F1008091F1002091F100909185
:10075000F10030E0392B4091F1009091F10050E030
:10076000DA01B92B4091F1009091F10050E0BA010B
:10077000792B92EF9093E8008630A1F1853009F44F
:10078000C0C0893009F476C0883009F49CC081115A
:1007900014C18091E80080FFFCCFE23809F4FEC06C
:1007A00080E08093F1001092F1008EEF8093E800DA
:1007B00008C0109719F0119709F4CEC081E2809318
:1007C000EB00FF91EF91BF91AF919F918F917F913E
:1007D0006F915F914F913F912F910F900FBE0F90AE
:1007E0001F90189584E790E005C0079640E0833B92
:1007F000940721F3FC014591549124173507A9F77B
:10080000FC01329645915491A417B50771F7FC018C
:10081000349645915491FC01369624916F3F7105B1
:1008200011F008F094C0621708F494C06EEF809144
:10083000E800982F9570D9F382FDC3CF322F213273
:1008400008F45AC030E2FA01832F94919093F1009A
:10085000815031968111F9CF8FEF830F90E001968F
:10086000480F591F231B6093E8002111E0CF30325D
:10087000F1F2A7CFE11129C0209380028EEF80937F
:10088000E80081E028ED31E08093E900A9014F5FA5
:100890005F4FF90194919093EB00992309F47CC088
:1008A000FA0144914093EC003196E4912D5F3F4F63
:1008B000E093ED008F5F853039F78EE18093EA0099
:1008C0001092EA007ECFE03839F1109709F073CF2B
:1008D000E13A09F49AC0E13209F070CF893041F170
:1008E0008A3009F4C6C08B3009F068CF20934002EB
:1008F0008EEF8093E80065CF2111A5CF6093E800CB
:1009000060CF8EEF8093E8008091E80080FFFCCFFD
:1009100020682093E30055CF8091E80080FFFCCF52
:10092000809180028093F1008EEF8093E80049CFA0
:100930008091E80082FFFCCF8091F10080937402E7
:100940008BEF8093E8008EEF8093E8003ACF6FEF53
:1009500070E069CF262F6ACF813009F02FCFE13ABE
:1009600009F02CCF462F2EEF8091E800982F95703C
:10097000D9F382FD26CF942F4132D0F090E2892F17
:100980001092F1008150E1F7491B2093E8004111DA
:10099000EBCF903249F315CF9A018CCFA093E900A9
:1009A0008091EB0085FB882780F91092E900F9CE51
:1009B0004111E5CF2093E80004CF982F9D7F91301F
:1009C00009F083CFE23009F080CF232B09F0F1CE7C
:1009D0002A2F2F779FEF920F943008F0EACE9EEFE8
:1009E0009093E8002093E900833009F4E7CE89E191
:1009F0008093EB0081E090E001C0880F2A95EAF730
:100A00008093EA001092EA00DCCE813089F08230D7
:100A100039F1833009F0D2CE8091E80080FFFCCF1D
:100A2000809140028093F1008EEF8093E800C9CE60
:100A30008091E80080FFFCCF80917B028093F100E1
:100A40001092F100E5E7F2E02BE732E0819180932C
:100A5000F1002E173F07D1F78EEF8093E800B1CE5B
:100A60008091E80080FFFCCF80913F028093F100ED
:100A7000F3CF30933F0210927E028EEF8093E80016
:060A8000A0CEF894FFCFA8
:100A8600FFFFFFFFFFFFFF00000110000000000155
:100A96000100480000003E00450028002A00310001
:100AA60042000000440043014000000108018000AC
:100AB60000004701040046006500370040000F00B3
:100AC60041001200000026000000360030000E0033
:100AD6002E000C003F002500110010001C000D0028
:100AE600230018000B002400050019001700090058
:100AF600220015000A002100000006003C00070045
:100B06003B0008003D00200000001B0039001600D5
:100B16003A001A0064001F0000001D002B000400AC
:100B26003500140029001E00510053005C005900D6
:100B36004C005F002C0000004F0054005D005A007E
:100B46004900600062000000000000000001800013
:100B5600000000000000000000000001020120006B
:100B660000000000000000005000000000005800D7
:100B76004A00570052004D00000000010800000026
:100B86000000000000000000560055005E005B00FB
:100B96004B00610063004E00380000002F00330058
:100BA6002D001300340027230002260004230040F2
:100BB6002300102300082300042300012300207DC6
:100BC60001240025007F27002800042A002B0000AE
:100BD600240025008027002800602A002B007F6261
:100BE600686C70786074647C6A36164E3E1E4626C3
:020BF6002E7E51
:00000001FF
