:10000000EFC0000008C1000006C1000004C10000EC
:1000100002C1000000C10000FEC00000FCC00000E2
:10002000FAC00000F8C00000F6C0000021C30000C4
:1000300095C30000F0C00000EEC00000ECC000005E
:10004000EAC00000E8C00000E6C000006BC100008C
:10005000E2C00000E0C00000DEC00000DCC0000024
:10006000DAC00000D8C00000D6C00000D4C0000034
:10007000D2C0000000010000C601120002000037DB
:10008000013B0022000087013F00210000490109D7
:100090000022010072011500210100620109000324
:1000A000000033010401030904E3004E02030904C4
:1000B000B3002E2E0343004D002000530074006F48
:1000C0000072006D00200051007500690063006B34
:1000D00000200046006900720065002000580054AE
:1000E0000000004E03420061007400680072006F5F
:1000F000006F006D0020004500700069007000680E
:100100000061006E006900650073002C0020004350
:10011000006F00730074006100720020004B0065E6
:1001200000790062006F0061007200640020002D01
:100130000000000403090409023B00020100C03270
:10014000090400000103010100092111010001223D
:100150003F000705830308000109040100010300B3
:100160000000092111010001221500070584032068
:1001700000010631FF0974A1537508150026FF0020
:10018000952009758102C005010906A10175019537
:1001900008050719E029E715002501810295017579
:1001A0000881039505750105081901290591029536
:1001B0000175039103950675081500256805071953
:1001C0000029688100C01201000200000020C01652
:1001D0007D04000101020001000001C10601C126E9
:1001E00011241FBECFEFD4E0DEBFCDBF12E0A0E0F0
:1001F000B1E0E6EDFAE002C005900D92A237B1073A
:10020000D9F723E0A2E7B2E001C01D92A13AB207FC
:10021000E1F716D05EC4F4CECCD1E1D18823E9F366
:1002200041D110927302E2E8F2E0DF0111971C92D3
:100230001082329683E0E23AF807B9F7789408958D
:10024000EBDFABD1FFCFCF93DF93A0E0B1E0C5E709
:10025000D2E00BC0F0E0EE0FFF1FE95FFE4F81819F
:10026000899381E0A630B80749F0ED91EF3F91F70F
:1002700080E0899381E0A630B807B9F780917302D6
:1002800080937B02DF91CF91ADC1282F30E0220F08
:10029000331FF901EF57FD4F91E09083F901E95FBA
:1002A000FE4F908191110DC0E5E0F1E0A6E0B1E0D4
:1002B00092919E9391E0E030F907D1F7809300018D
:1002C000C2CF809173029181892B80937302BBCF3F
:1002D000282F30E0220F331FF901EF57FD4F108216
:1002E000F901E95FFE4F9081911114C0E0E0F1E067
:1002F00090E02191281721F09F5F9630D1F7A3CF8E
:10030000E92FF0E0E050FF4F818180839F5F9630BE
:10031000B9F7F5CF918190958091730289238093ED
:10032000730291CF1F920F920FB60F921124BF92BA
:10033000CF92DF92EF92FF920F931F932F933F93F1
:100340004F935F936F937F938F939F93AF93BF93DD
:10035000CF93DF93EF93FF9326D1C12CB12C8B2D3C
:1003600061D0F12C0BC0803809F44AC0CF57DD4F63
:10037000880F8983F394F8E0FF16F1F0EF2CEC0C72
:10038000CE2DD0E0CC0FDD1F8E010F571D4FF80191
:10039000D1808F2D59D08D29F80181838F3719F79E
:1003A00090819923D1F18FE7CF57DD4F880F898353
:1003B000F394F8E0FF12E2CFCF0EB39480E9C812B5
:1003C000CECF3ED08091740250D0E7D0FF91EF9114
:1003D000DF91CF91BF91AF919F918F917F916F915D
:1003E0005F914F913F912F911F910F91FF90EF904F
:1003F000DF90CF90BF900F900FBE0F901F90189579
:100400008E010F571D4FF8019081992309F4AECF4B
:100410008E2D5EDFF8018181A9CF8E2D36DFF801A8
:100420008181A1CF9BB1E82FF0E0E15AFD4F917897
:100430008081982B9BB985E08A95F1F7000008959B
:100440008BB18E678BB90895E82FF0E0E80FF11DAE
:10045000E80FF11DE95DFD4FA081B1819C91828182
:10046000982381E009F080E0089525B190E080951F
:100470009095880F991F82959295907F9827807FFD
:100480009827982F90782F77922B95B928B1982F8D
:1004900090722F7D922B98B998B180749F7B892B95
:1004A00088B90895CF92DF92FF920F931F93CF9355
:1004B000DF93CDB7DEB76E970FB6F894DEBF0FBEF1
:1004C000CDBF80E8809361001092610085B780689D
:1004D00085BF85B7806885BF8FE0E1E4F2E0DE018B
:1004E000509601900D928A95E1F78FE0E0E5F2E0F9
:1004F000DE01119601900D928A95E1F7FE0170964A
:100500009E012C5E3F4FCE0101966C010496BE0108
:10051000615E7F4F40815181D9010C91F02EF094A2
:10052000DA011C911F211C9342815381DA011C9135
:10053000102B1C93D6014D915C91DC010C91DA01DA
:100540001C91102B1C93D60112964D915C91139720
:100550000095DA011C9110231C9335962B5F3F4FB9
:10056000B5E0CB0ED11C0596E617F70799F684B5D2
:10057000826084BD85B5856085BD80E187BD6E964E
:100580000FB6F894DEBF0FBECDBFDF91CF911F91A4
:100590000F91FF90DF90CF900895EEE6F0E080811C
:1005A000826080830895EEE6F0E080818D7F808315
:1005B00008951092630080EA8093D80086E089BD98
:1005C00009B400FEFDCF80E88093D8001092E000CF
:1005D000109280028CE08093E200789408958091DC
:1005E0008002089580918002882309F43FC08FB76C
:1005F000F89493E09093E9002091E4002E5C9091B0
:10060000E80095FD1CC08FBF80918002882371F1A6
:100610008091E400821751F133E009C08FBF8091CF
:100620008002882319F18091E4008217F9F08FB7D6
:10063000F8943093E9009091E80095FFEFCF909106
:100640007B029093F1001092F100E5E7F2E09191C6
:100650009093F10092E0EB37F907C9F79AE3909392
:10066000E80010927E028FBF80E008958FEF08951A
:100670001F920F920FB60F9211248F939F93EF93B7
:10068000FF938091E1001092E10083FF0FC0109270
:10069000E90091E09093EB001092EC0092E29093CD
:1006A000ED0098E09093F0001092800282FF38C035
:1006B000809180028823A1F180917F028823A9F094
:1006C000815080937F02811110C084E08093E90003
:1006D0008091E80085FF06C01092F1008091E8004B
:1006E00085FDFACF8AE38093E80080913F0288235A
:1006F000B9F080917C028F5F80937C02837081F4DB
:1007000083E08093E9008091E80085FF09C0809133
:100710007E028F5F80937E0290913F02891749F09D
:10072000FF91EF919F918F910F900FBE0F901F90AF
:10073000189510927E0280917B028093F1001092B6
:10074000F100E5E7F2E081918093F10082E0EB3780
:10075000F807C9F78AE38093E800E2CF1F920F926F
:100760000FB60F9211242F933F934F935F936F9384
:100770007F938F939F93AF93BF93CF93EF93FF9309
:100780001092E9008091E80083FF49C0E091F100F8
:100790008091F1002091F1009091F10030E0392B2F
:1007A0004091F1009091F10050E0592B6091F100DF
:1007B0009091F10070E0792B92EF9093E8008630F1
:1007C00009F442C0853009F4CBC0893009F483C0F4
:1007D000883009F4A6C0811110C08091E80080FF24
:1007E000FCCFE23809F43AC180E08093F100109226
:1007F000F1008EEF8093E80015C0982F9D7F913017
:1008000009F091C0E23009F08EC0232B09F43BC1FE
:100810004115510521F04130510509F4CCC081E268
:100820008093EB00FF91EF91CF91BF91AF919F919A
:100830008F917F916F915F914F913F912F910F9089
:100840000FBE0F901F901895C9E084E790E003C099
:100850000796C15021F3FC01A591B4912A173B07DB
:10086000B9F7FC013296A591B4914A175B0781F75D
:10087000FC01349625913491FC01369654916F3FDA
:10088000710511F008F092C0651708F492C07EEF70
:100890009091E800492F4570D9F392FDC3CF652FA1
:1008A000513208F458C060E2F901962F4491409308
:1008B000F100915031969111F9CF8FEF860F90E0B2
:1008C0000196280F391F561B7093E8005111E0CF95
:1008D0006032F1F2A7CFE11126C0209380028EEFA3
:1008E0008093E80041E088ED91E04093E9009C01AD
:1008F0002F5F3F4FFC0154915093EB00552359F06B
:10090000F90124912093EC009C012D5F3F4F31961B
:1009100084918093ED004F5F453009F4A9C0C9016F
:10092000E4CFE03841F14115510509F074CFE13AC7
:1009300009F461C0E13209F072CF893041F18A30A7
:1009400009F4BFC08B3009F06ACF209340028EEFCC
:100950008093E80067CF5111A7CF7093E80062CF72
:100960008EEF8093E8008091E80080FFFCCF206844
:100970002093E30057CF8091E80080FFFCCF809167
:1009800080028093F1008EEF8093E8004BCF80913E
:10099000E80082FFFCCF8091F100809374028BEF1E
:1009A0008093E8008EEF8093E8003CCF6FEF70E01B
:1009B0006BCF562F6CCF813009F031CFE13A09F07F
:1009C0002ECF2EEF8091E800982F9570D9F382FDFD
:1009D00029CF962F613208F451C090E2892F1092EE
:1009E000F1008150E1F7691B2093E8006111EACF23
:1009F000903241F317CF813089F0823031F183306A
:100A000009F00DCF8091E80080FFFCCF809140027B
:100A10008093F1008EEF8093E80004CF8091E8008E
:100A200080FFFCCF80917B028093F1001092F10057
:100A3000E5E7F2E081918093F10082E0EB37F8077F
:100A4000C9F78EEF8093E800EDCE8091E80080FF3B
:100A5000FCCF80913F028093F100F3CF4093E900F7
:100A60008091EB0085FB882780F91092E900BDCECC
:100A70008EE18093EA001092EA00D4CE6111AECFED
:100A80002093E800CFCE242F2F779FEF920F943042
:100A900008F0BECE9EEF9093E8002093E9008330EB
:100AA00009F4BDCE89E18093EB0081E090E0022E55
:100AB00001C0880F0A94EAF78093EA001092EA00D6
:100AC000B1CE30933F0210927E028EEF8093E80009
:060AD000A9CEF894FFCF4F
:100AD600FFFFFFFFFFFFFF00000110000000000105
:100AE6000100480000003E00450028002A003100B1
:100AF60042000000440043014000000000000000E6
:100B060000004701040046006500370040000F0062
:100B160041001200000026000000360030000E00E2
:100B26002E000C003F002500110010001C000D00D7
:100B3600230018000B002400050019001700090007
:100B4600220015000A002100000006003C000700F4
:100B56003B0008003D00200000001B003900160085
:100B66003A001A0064001F0000001D002B0004005C
:100B76003500140029001E00510053005C00590086
:100B86004C005F002C0000004F0054005D005A002E
:100B960049006000620000000000000000018000C3
:100BA600000000000000000000000001020120001B
:100BB6000000000000000000500000000000580087
:100BC6004A00570052004D000000000108000000D6
:100BD6000000000000000000560055005E005B00AB
:100BE6004B00610063004E00380000002F00330008
:100BF6002D001300340027230002260004230040A2
:100C06002300102300082300042300012300207D75
:100C160001240025007F27002800042A002B00005D
:100C2600240025008027002800602A002B007F6210
:100C3600686C70786074647C6A36164E3E1E462672
:020C46002E007E
:00000001FF
