:10000000F2C000000BC1000009C1000007C10000E0
:1000100005C1000003C1000001C10000FFC00000D5
:10002000FDC00000FBC00000F9C000004AC2000093
:10003000BEC20000F3C00000F1C00000EFC000002D
:10004000EDC00000EBC00000E9C00000E7C0000008
:10005000E5C00000E3C00000E1C00000DFC0000018
:10006000DDC00000DBC00000D9C00000D7C0000028
:10007000D5C0000000010000CC0112000200003DCC
:10008000013B002200008D013F002100004F0109CB
:100090000022010078011500210100680109000318
:1000A000000039010401030904E9004E02030904B8
:1000B000B30034340343004D002000530074006F3C
:1000C0000072006D00200051007500690063006B34
:1000D00000200046006900720065002000520061A7
:1000E0000070006900640000004E0342006100746B
:1000F00000680072006F006F006D00200045007006
:100100000069007000680061006E0069006500739E
:10011000002C00200043006F007300740061007227
:100120000020004B006500790062006F00610072E2
:1001300000640020002D0000000403090409023BB4
:1001400000020100C032090400000103010100099E
:100150002111010001223F00070583030800010966
:100160000401000103000000092111010001221512
:1001700000070584032000010631FF0974A15375AF
:1001800008150026FF00952009758102C0050109A8
:1001900006A10175019508050719E029E715002555
:1001A00001810295017508810395057501050819FE
:1001B00001290591029501750391039506750815AE
:1001C0000025680507190029688100C01201000296
:1001D00000000020C0167D040001010200010000A3
:1001E00001C10601C12611241FBECFEFD4E0DEBF3E
:1001F000CDBF11E0A0E0B1E0E6E2F9E002C0059079
:100200000D92A037B107D9F721E0A0E7B1E001C016
:100210001D92AD37B207E1F725D083C3F1CE25B1EA
:1002200090E080959095AC010024569547950794F1
:10023000569547950794542F402D40782F77242BBF
:1002400025B980FD459A80FF459828B18295929501
:10025000907F9827807F98278074922F9F7B892B8F
:1002600088B90895CF93DF93CDB7DEB76E970FB6F9
:10027000F894DEBF0FBECDBFB9D0CED08823E9F34E
:1002800080E8809361001092610085B7806885BF27
:1002900085B7806885BF8FE0E0E4F1E0DE0150962D
:1002A00001900D928A95E1F78FE0EFE4F1E0DE0135
:1002B000119601900D928A95E1F7DE015096AE01FC
:1002C0004C5E5F4FCE0101966C019E012B5F3F4F4C
:1002D000BE01615E7F4F0D911C911197FA018081E3
:1002E000982F9095F801F0809F21908312960D91A0
:1002F0001C911397F8019081892B8083F60100816E
:100300001181F9018081F8019081982B9083F60189
:10031000028113818095F80190818923808315964D
:100320004B5F5F4FF5E0CF0ED11C2B5F3F4FA61701
:10033000B70789F678949EE5A92E91E0B92E2AE0B8
:10034000C22E21E0D22E20E085B1F50191915F010E
:10035000807D892B85B9F5E0FA95F1F7000008E278
:1003600011E080E0E82E81E0F82E09C00D5F1F4FFC
:10037000FFEFEF1AFF0A81E000341807B9F0F80127
:1003800032970190F081E02D9081F80180818923DE
:1003900069F760E0F601808188D060E0F701808134
:1003A00084D060E08CE281D021E0E0CF9FEFC91AD9
:1003B000D90AE0E7AE16E1E0BE0631F6211112C01F
:1003C0008091240190912501891B8093250127DFCD
:1003D000FFEF29E688E1F15020408040E1F700C0BE
:1003E0000000A9CF60E088E260D0EACF10926300FD
:1003F00080EA8093D80086E089BD09B400FEFDCF75
:1004000080E88093D8001092E00010927C018CE08C
:100410008093E2007894089580917C010895809102
:100420007C01882309F43FC08FB7F89493E0909340
:10043000E9002091E4002E5C9091E80095FD1CC03D
:100440008FBF80917C01882371F18091E400821735
:1004500051F133E009C08FBF80917C01882319F1ED
:100460008091E4008217F9F08FB7F8943093E90097
:100470009091E80095FFEFCF909177019093F10074
:100480001092F100E1E7F1E091919093F10091E099
:10049000E737F907C9F79AE39093E80010927A01D9
:1004A0008FBF80E008958FEF089560937701809368
:1004B0007101B5DF811108951092770110927101D9
:1004C000AECF1F920F920FB60F9211248F939F936E
:1004D000EF93FF938091E1001092E10083FF0FC042
:1004E0001092E90091E09093EB001092EC0092E200
:1004F0009093ED0098E09093F00010927C0182FFC1
:1005000038C080917C018823A1F180917B018823F0
:10051000A9F0815080937B01811110C084E0809309
:10052000E9008091E80085FF06C01092F1008091FB
:10053000E80085FDFACF8AE38093E80080913E01D0
:100540008823B9F0809178018F5F80937801837060
:1005500081F483E08093E9008091E80085FF09C081
:1005600080917A018F5F80937A0190913E01891783
:1005700049F0FF91EF919F918F910F900FBE0F90D7
:100580001F90189510927A01809177018093F10065
:100590001092F100E1E7F1E081918093F10081E0B8
:1005A000E737F807C9F78AE38093E800E2CF1F92A4
:1005B0000F920FB60F9211242F933F934F935F9397
:1005C0006F937F938F939F93AF93BF93CF93DF935B
:1005D000EF93FF931092E9008091E80083FF3DC004
:1005E000E091F1008091F1002091F1009091F100F3
:1005F00030E0392B4091F1009091F10050E0DA01A8
:10060000B92B4091F1009091F10050E0BA01792BA3
:1006100092EF9093E8008630B1F1853009F4E9C09B
:10062000893009F477C0883009F49DC08111BBC0BE
:100630008091E80080FFFCCFE23809F45BC180E0E4
:100640008093F1001092F1008EEF8093E80008C0D3
:10065000109719F0119709F4F7C081E28093EB002D
:10066000FF91EF91DF91CF91BF91AF919F918F91CA
:100670007F916F915F914F913F912F910F900FBE9E
:100680000F901F90189549E084E790E003C007960B
:10069000415019F3FC01C591D4912C173D07B9F7CE
:1006A000FC013296C591D491AC17BD0781F7FC01CE
:1006B000349645915491FC01369624916F3F710513
:1006C00011F008F0BEC0621708F4B9C06EEF809157
:1006D000E800982F9570D9F382FDC2CF322F2132D6
:1006E00008F45CC030E2FA01832F94919093F100FA
:1006F000815031968111F9CF8FEF830F90E00196F1
:10070000480F591F231B6093E8002111E0CF3032BE
:10071000F1F2A6CFE1112AC020937C018EEF8093E5
:10072000E80081E02EED31E08093E900A9014F5F00
:100730005F4FF90194919093EB00992309F4D8C08D
:10074000FA0144914093EC003196E4912D5F3F4FC4
:10075000E093ED008F5F853039F78EE18093EA00FA
:100760001092EA007DCFE03809F44EC0109709F0EE
:1007700071CFE13A09F489C0E13209F06ECF8930D6
:1007800009F44EC08A3009F4C4C08B3009F065CF3B
:1007900020933F018EEF8093E80062CF2111A3CF19
:1007A0006093E8005DCF982F9D7F9130F9F6E2309D
:1007B000E9F6232B09F04CCF2A2F2F779FEF920FCA
:1007C000943008F045CF9EEF9093E8002093E90025
:1007D000833009F442CF89E18093EB0081E090E01F
:1007E00001C0880F2A95EAF78093EA001092EA0088
:1007F00037CF8EEF8093E8008091E80080FFFCCF38
:1008000020682093E3002CCF8091E80080FFFCCF8C
:1008100080917C018093F1008EEF8093E80020CFDF
:100820008091E80082FFFCCF8091F10080937001FD
:100830008BEF8093E8008EEF8093E80011CF262F96
:1008400045CF6FEF70E03FCF813009F006CFE13A3E
:1008500009F003CF462F2EEF8091E800982F957076
:10086000D9F382FDFDCE942F413208F44DC090E2C1
:10087000892F1092F1008150E1F7491B2093E80085
:100880004111EACF903241F3EBCE813089F08230D2
:1008900031F1833009F0E1CE8091E80080FFFCCF98
:1008A00080913F018093F1008EEF8093E800D8CED5
:1008B0008091E80080FFFCCF809177018093F10068
:1008C0001092F100E1E7F1E081918093F10081E085
:1008D000E737F807C9F78EEF8093E800C1CE809123
:1008E000E80080FFFCCF80913E018093F100F3CFC0
:1008F0009A0130CFA093E9008091EB0085FB882717
:1009000080F91092E9009CCE4111B2CF2093E8000B
:10091000A7CE30933E0110927A018EEF8093E800CB
:060920009FCEF894FFCF0A
:10092600271E1F2021222324252604050607080941
:100936000A0B0C0D0E0F1011121314151617181999
:100946001A1B1C1D070726008026001023001023F3
:1009560000402900012900102600042900027D011B
:10096600240025005027002800942A002B00132479
:10097600002500AF27002800602A002B00000D008C
:1009860020080C22262A2E2C010E092803240F04E7
:00000001FF
