:10000000F2C000000BC1000009C1000007C10000E0
:1000100005C1000003C1000001C10000FFC00000D5
:10002000FDC00000FBC00000F9C000004FC300008D
:10003000C3C30000F3C00000F1C00000EFC0000027
:10004000EDC00000EBC00000E9C000006EC1000080
:10005000E5C00000E3C00000E1C00000DFC0000018
:10006000DDC00000DBC00000D9C00000D7C0000028
:10007000D5C0000000010000CC0112000200003DCC
:10008000013B002200008D013F002100004F0109CB
:100090000022010078011500210100680109000318
:1000A000000039010401030904E9004E02030904B8
:1000B000B30034340343004D002000530074006F3C
:1000C0000072006D00200051007500690063006B34
:1000D00000200046006900720065002000520061A7
:1000E0000070006900640000004E0342006100746B
:1000F00000680072006F006F006D00200045007006
:100100000069007000680061006E0069006500739E
:10011000002C00200043006F007300740061007227
:100120000020004B006500790062006F00610072E2
:1001300000640020002D0000000403090409023BB4
:1001400000020100C032090400000103010100099E
:100150002111010001223F00070583030800010966
:100160000401000103000000092111010001221512
:1001700000070584032000010631FF0974A15375AF
:1001800008150026FF00952009758102C0050109A8
:1001900006A10175019508050719E029E715002555
:1001A00001810295017508810395057501050819FE
:1001B00001290591029501750391039506750815AE
:1001C0000025680507190029688100C01201000296
:1001D00000000020C0167D040001010200010000A3
:1001E00001C10601C12611241FBECFEFD4E0DEBF3E
:1001F000CDBF12E0A0E0B1E0E0E3FBE002C005907B
:100200000D92A237B107D9F723E0A2E7B2E001C00F
:100210001D92A13AB207E1F716D088C4F1CED3D12E
:10022000E8D18823E9F344D110927302E2E8F2E0C6
:10023000DF0111971C921082329683E0E23AF807B0
:10024000B9F778940895EBDFB2D1FFCFCF93DF9366
:10025000A0E0B1E0C5E7D2E00BC0F0E0EE0FFF1F79
:10026000E95FFE4F8181899381E0A630B80749F0AC
:10027000ED91EF3F91F780E0899381E0A630B807D8
:10028000B9F78091730280937B02DF91CF91B4C163
:10029000282F30E0220F331FF901EF57FD4F91E077
:1002A0009083F901E95FFE4F908191110DC0E5E067
:1002B000F1E0A6E0B1E092919E9391E0E030F90781
:1002C000D1F780930001C2CF909173028181892B75
:1002D00080937302BBCF282F30E0220F331FF90128
:1002E000EF57FD4F1082F901E95FFE4F90819111A8
:1002F00014C0E0E0F1E090E02191281721F09F5F29
:100300009630D1F7A3CFE92FF0E0E050FF4F818185
:1003100080839F5F9630B9F7F5CF8181809590916A
:10032000730289238093730291CF1F920F920FB6AD
:100330000F921124CF92DF92EF92FF920F931F93AF
:100340002F933F934F935F936F937F938F939F93DD
:10035000AF93BF93EF93FF93CF93DF9300D000D081
:10036000CDB7DEB72AD1F12CE12C8E2D6ED010E066
:100370000BC0803861F1FA01EF57FD4F982F990FAC
:1003800091831F5F1830A1F1012F0F0D812F6CD0C9
:10039000202F30E0A901440F551F9A012F573D4FE0
:1003A000F9019181892B81838F3719F79081911100
:1003B000E2CF802F29833A834B835C8369DF2981D5
:1003C0003A81F90181815C814B818038A1F69A01E3
:1003D0002F573D4F6901F9012081222361F2802FBF
:1003E0004B835C8378DFF60181815C814B81C3CFD5
:1003F000F8E0FF0EE39420E9F212B7CF8091730288
:10040000823209F18091740241D0D1D00F900F90C7
:100410000F900F90DF91CF91FF91EF91BF91AF912E
:100420009F918F917F916F915F914F913F912F910C
:100430001F910F91FF90EF90DF90CF900F900FBE24
:100440000F901F9018951ED1DDCF95B1E82FF0E0E9
:10045000E15AFD4F892F807D9081892B85B985E0F8
:100460008A95F1F700000895282F30E0280F311DFC
:10047000280F311DF901E95DFD4FA081B1819C91EB
:100480008281982381E009F080E0089580FF08C010
:10049000459881FF08C02F9882FD08C0469A0895AC
:1004A000459A81FDF8CF2F9A82FFF8CF469808959C
:1004B000CF92DF92FF920F931F93CF93DF93CDB72D
:1004C000DEB76E970FB6F894DEBF0FBECDBF80E8E3
:1004D000809361001092610085B7806885BF85B701
:1004E000806885BF8FE0E1E4F2E0DE015096019084
:1004F0000D928A95E1F78FE0E0E5F2E0DE011196DA
:1005000001900D928A95E1F7DE015096AE014C5EA6
:100510005F4FCE0101966C019E012B5F3F4FBE01E4
:10052000615E7F4F0D911C911197FA018081982F88
:100530009095F801F0809F21908312960D911C9167
:100540001397F8019081892B8083F6010081118136
:10055000F9018081F8019081982B9083F601028146
:1005600013818095F80190818923808315964B5FD4
:100570005F4FF5E0CF0ED11C2B5F3F4FA617B7079B
:1005800089F684B5826084BD85B5856085BD80E1CE
:1005900087BD6E960FB6F894DEBF0FBECDBFDF915C
:1005A000CF911F910F91FF90DF90CF900895EEE6CD
:1005B000F0E08081826080830895EEE6F0E0808143
:1005C0008D7F808308951092630080EA8093D80025
:1005D00086E089BD09B400FEFDCF80E88093D80095
:1005E0001092E000109280028CE08093E2007894F8
:1005F000089580918002089580918002882309F4F3
:100600003FC08FB7F89493E09093E9002091E40005
:100610002E5C9091E80095FD1CC08FBF80918002F8
:10062000882371F18091E400821751F133E009C011
:100630008FBF80918002882319F18091E400821796
:10064000F9F08FB7F8943093E9009091E80095FFA6
:10065000EFCF90917B029093F1001092F100E5E7CB
:10066000F2E091919093F10092E0EB37F907C9F72E
:100670009AE39093E80010927E028FBF80E0089585
:100680008FEF0895F89481E08093E00080E28093FA
:10069000D800E9ECF0E010828FE19EE40197F1F7D9
:1006A00000C000001DBA109268001CBC10BE1FBA2A
:1006B00010926E0010926F00108214B817B81AB81A
:1006C00015B818B81BB80C94003808951F920F92F3
:1006D0000FB60F9211248F939F93EF93FF93809106
:1006E000E1001092E10083FF0FC01092E90091E059
:1006F0009093EB001092EC0092E29093ED0098E062
:100700009093F0001092800282FF38C080918002A6
:100710008823A1F180917F028823A9F081508093E2
:100720007F02811110C084E08093E9008091E8008D
:1007300085FF06C01092F1008091E80085FDFACF98
:100740008AE38093E80080913F028823B9F080918A
:100750007C028F5F80937C02837081F483E08093BE
:10076000E9008091E80085FF09C080917E028F5FDB
:1007700080937E0290913F02891749F0FF91EF919B
:100780009F918F910F900FBE0F901F901895109210
:100790007E0280917B028093F1001092F100E5E7E8
:1007A000F2E081918093F10082E0EB37F807C9F71E
:1007B0008AE38093E800E2CF1F920F920FB60F9268
:1007C00011242F933F934F935F936F937F938F9356
:1007D0009F93AF93BF93CF93DF93EF93FF931092C9
:1007E000E9008091E80083FF3DC0E091F100809135
:1007F000F1002091F1009091F10030E0392B40910F
:10080000F1009091F10050E0DA01B92B4091F10034
:100810009091F10050E0BA01792B92EF9093E800AB
:100820008630B1F1853009F4E9C0893009F477C028
:10083000883009F49DC08111BBC08091E80080FF21
:10084000FCCFE23809F45BC180E08093F1001092A4
:10085000F1008EEF8093E80008C0109719F011970F
:1008600009F4F7C081E28093EB00FF91EF91DF91F3
:10087000CF91BF91AF919F918F917F916F915F9138
:100880004F913F912F910F900FBE0F901F90189591
:1008900049E084E790E003C00796415019F3FC015A
:1008A000C591D4912C173D07B9F7FC013296C5913B
:1008B000D491AC17BD0781F7FC0134964591549152
:1008C000FC01369624916F3F710511F008F0BEC00F
:1008D000621708F4B9C06EEF8091E800982F957008
:1008E000D9F382FDC2CF322F213208F45CC030E24E
:1008F000FA01832F94919093F100815031968111E8
:10090000F9CF8FEF830F90E00196480F591F231BFB
:100910006093E8002111E0CF3032F1F2A6CFE1116F
:100920002AC0209380028EEF8093E80081E02EEDB4
:1009300031E08093E900A9014F5F5F4FF901949185
:100940009093EB00992309F4D8C0FA0144914093A5
:10095000EC003196E4912D5F3F4FE093ED008F5F07
:10096000853039F78EE18093EA001092EA007DCF5E
:10097000E03809F44EC0109709F071CFE13A09F45C
:1009800089C0E13209F06ECF893009F44EC08A3057
:1009900009F4C4C08B3009F065CF209340028EEF7C
:1009A0008093E80062CF2111A3CF6093E8005DCF70
:1009B000982F9D7F9130F9F6E230E9F6232B09F06C
:1009C0004CCF2A2F2F779FEF920F943008F045CF0E
:1009D0009EEF9093E8002093E900833009F442CF22
:1009E00089E18093EB0081E090E001C0880F2A95B7
:1009F000EAF78093EA001092EA0037CF8EEF8093F7
:100A0000E8008091E80080FFFCCF20682093E3009D
:100A10002CCF8091E80080FFFCCF809180028093F2
:100A2000F1008EEF8093E80020CF8091E80082FFF4
:100A3000FCCF8091F100809374028BEF8093E800EB
:100A40008EEF8093E80011CF262F45CF6FEF70E037
:100A50003FCF813009F006CFE13A09F003CF462FAE
:100A60002EEF8091E800982F9570D9F382FDFDCE8E
:100A7000942F413208F44DC090E2892F1092F1007A
:100A80008150E1F7491B2093E8004111EACF9032F1
:100A900041F3EBCE813089F0823031F1833009F0BF
:100AA000E1CE8091E80080FFFCCF809140028093EE
:100AB000F1008EEF8093E800D8CE8091E80080FFAF
:100AC000FCCF80917B028093F1001092F100E5E76A
:100AD000F2E081918093F10082E0EB37F807C9F7EB
:100AE0008EEF8093E800C1CE8091E80080FFFCCFBC
:100AF00080913F028093F100F3CF9A0130CFA09311
:100B0000E9008091EB0085FB882780F91092E900CD
:100B10009CCE4111B2CF2093E800A7CE30933F0284
:100B200010927E028EEF8093E8009FCEF894FFCF64
:100B3000FFFFFFFFFFFFFF000001100000000001AA
:100B40000100480000003E00450028002A00310056
:100B5000420000004400430140000000000000008B
:100B600000004701040046006500370040000F0008
:100B700041001200000026000000360030000E0088
:100B80002E000C003F002500110010001C000D007D
:100B9000230018000B0024000500190017000900AD
:100BA000220015000A002100000006003C0007009A
:100BB0003B0008003D00200000001B00390016002B
:100BC0003A001A0064001F0000001D002B00040002
:100BD0003500140029001E00510053005C0059002C
:100BE0004C005F002C0000004F0054005D005A00D4
:100BF0004900600062000000000000000001800069
:100C000000000000000000000000000102012000C0
:100C1000000000000000000050000000000058002C
:100C20004A00570052004D0000000001080000007B
:100C30000000000000000000560055005E005B0050
:100C40004B00610063004E00380000002F003300AD
:100C50002D001300340027260080260010230010EA
:100C60002300402900012900102600042900027DEC
:100C700001240025005027002800942A002B00138F
:100C800024002500AF27002800602A002B00000D5B
:100C90000020080C22262A2E2C010E092803240FDE
:020CA00004024C
:00000001FF
